:020000040800F2
:10000000E805002021440008E5400008E74000081A
:1000100000000000000000000000000000000000E0
:10002000000000000000000000000000E94000089F
:100030000000000000000000EB400008ED40000858
:10004000EB0F000800000000431000085B100008E0
:10005000FB11000803170008071700080B1700081A
:1000600000000000072100088F230008EF2400088B
:100070008728000807420008B3420008000000007B
:10008000F540000805410008F74300080344000854
:100090004144000843440008454400084744000820
:1000A000494400084B4400084D4400084F440008F0
:1000B00051440008534400080100202008437047C1
:1000C000FDB5B2B03A98049102A93B2288540020B1
:1000D0000D9024A8401C2F900DE00498329A904770
:1000E0000490002801D100F09AFE0D98401C0D905C
:1000F0003398401C339033980178002910D025297B
:10010000EBD100200790089009900A900B900C907A
:10011000002102240120149008201290339D05E054
:100120000D9800F07EFE0800149901436D1C28789C
:100130002028F8D023280BD02B2804D02D2804D039
:10014000302808D00AE02143F0E708000421ECE75A
:1001500008000821E9E708001021E6E72A280FD166
:10016000349802681068121D349B1A600F900028A2
:1001700004D542420F920800042101436D1C12E095
:1001800000200F90644A09E00F9B934205DA9E001D
:10019000F3185B00181830380F906D1C2878030096
:1001A000303B0A2BF0D328782E2803D00020C04300
:1001B0000E9027E06D1C28782A2808D13498006812
:1001C0000268001D349B18600E926D1C1AE02D28E9
:1001D00002D12D226D1C00E0002200200E900CE0C8
:1001E000002A09D10E9B4C4EB34205DA9E00F3184B
:1001F0005B00181830380E906D1C28780300303BD7
:100200000A2BEDD302A801872E78310040487844AC
:10021000FF30401E00F0E0FE002801D06D1C00E021
:10022000002602A83A214654405C682804D1287868
:1002300068280BD1622005E06C2807D128786C284B
:1002400004D1712002A93A2288546D1C15A8069089
:10025000287869460870681C339068460278100058
:10026000253833D01C3800D1CBE1001F022800D83C
:10027000C7E1133801D100F0FCFC093800D1C0E11E
:10028000801E01D100F092FD401E01D100F03FFD23
:10029000401E022800D8B4E1001F01D100F037FD54
:1002A000401F00D108E1401E01D100F0E2FC401ED9
:1002B00000D1F0E0C01E0ED0801E01D100F0D9FCAC
:1002C000C01E01D100F0D5FC00F07BFD1498079012
:1002D000252015A97CE1349800680468001D349934
:1002E00008600594002C00D0C1E002A83B21405CCE
:1002F000002800D1B5E00024E443064878441430D7
:1003000000F074FE201A01D000F089FD00F066FDB7
:10031000383F00006C3F0000CBCCCC0C01236A4678
:1003200002A9280000F038FE002801D000F077FD77
:10033000641EF3D13295079D15AC002D0FD0329E6F
:1003400021780498B0470490002801D100F067FD9F
:100350000D98401C0D90641C6D1EF1D1329630201A
:10036000694608700A9C002C0DDD329D01236A4607
:1003700002A9280000F010FE002801D000F04FFD77
:10038000641EF3D13295059C089D002D0FD0329E3E
:1003900021780498B0470490002801D100F03FFD77
:1003A0000D98401C0D90641C6D1EF1D132963027C3
:1003B00069460F700B9C002C0DDD329D01236A46AF
:1003C00002A9280000F0E8FD002801D000F027FD78
:1003D000641EF3D13295059808994418099D002DA3
:1003E0000FD0329E21780498B0470490002801D1A4
:1003F00000F015FD0D98401C0D90641C6D1EF1D190
:100400003296684607700C9C002C0DDD329D01234E
:100410006A4602A9280000F0BFFD002801D000F0C4
:10042000FEFC641EF3D1329502A83821405C4007DF
:1004300000D460E62020694608700198002800DC9E
:1004400059E6019C329D01236A4602A9280000F06A
:10045000A3FD002801D000F0E2FC641EF3D1329528
:1004600049E61B4878446830059000F0B7FC0E9DC3
:10047000002D03D5200000F0DDFD09E02A00002159
:10048000200000F0DFFD002801D0001B00E0280064
:10049000089000F0A3FC349800680268001D3499AD
:1004A00008600020C0430021104002AA03C215A822
:1004B0000590782100F076FC02A83B21415C0029E0
:1004C00008D00024E4434B487844FF30293017E734
:1004D000CC3D00003A21405C62286AD0682819D0DF
:1004E0006A2845D06C2806D071284FD0742831D0A6
:1004F0007A2821D06FE0349800680168001D349A92
:10050000106000297AD10024E4433B487844FF304E
:100510001738F5E6349800680168001D349A1060B9
:10052000002905D10024E44333487844CA30E7E683
:100530000D98088000F052FC349800680168001D96
:10054000349A1060002959D10024E4432A487844A1
:10055000A630D5E6349800680168001D349A106012
:1005600000294BD10024E443234878448A30C7E66D
:10057000349800680268001D34990860002A13D17D
:100580000024E4431C4878446E30B9E6349800688F
:100590000268001D34990860002A05D10024E44354
:1005A000154878445230ABE60D98C11703C200F0ED
:1005B00015FC349800680168001D349A1060002909
:1005C00005D10024E4430C4878442C3098E60D987B
:1005D000087000F003FC349800680168001D349A2C
:1005E000106000290AD10024E4430348784408300D
:1005F00086E600BF5C3C0000703C00000D9808607F
:10060000ECE334980068C31D0720834334980360EB
:1006100003CB349D2B6002AB03C32023C80F04D04F
:1006200007982D2115AB19540DE002A8008F204228
:1006300004D007982B2115AB195404E0C00704D54A
:10064000079815A90B54401C079015A80799401846
:1006500013901398059024AC02A8C0C8684600788F
:100660002021014368464170407861280BD00E98E4
:10067000002801D5062005E005D1684640786728A6
:1006800001D114980E9002A803C808004B005B1516
:100690000025ED43AB420ED109030CD00320089096
:1006A000613A1A2A03D21949794460310FE0184996
:1006B00079445C310BE0AB420ED100030CD1032036
:1006C0000890613A1A2A1DD312497944463103220F
:1006D000139800F0DDFC81E301AA02A803C800F032
:1006E000E4FC02AA03C26846407861281BD1059841
:1006F00030210170811C05916946097861290DD16D
:1007000078210CE0044979440E31E0E7943B000085
:10071000943B0000983B0000903B00005821417042
:100720000798801C079002A803C82A465308024075
:100730000B4004D1002A02D10027002552E168466F
:100740004078612800D098E00E98002801D521203B
:1007500000E0401C13901398401C2E90300039008C
:100760000022002300F0B6FC02A830C802D280208C
:10077000000645400198001F019024A90A7024A892
:10078000461C2E98002832DD2E9F200029000022D2
:1007900080235B0300F0B7FC29D81C2200F0CCFCBE
:1007A00004000D0000F000FD2E90FF1F002F09DD5A
:1007B00000F034FD02000B002000290000F095FD40
:1007C00004000D00F01D07212E9A002A0ADD491EA3
:1007D00008D4401E13071B0F03701211F5E7401ECB
:1007E00000220270491EFAD5C61D002FCDDC24A9B7
:1007F0002F98321A24A8441C1398824200DC10005F
:10080000002833D4904205DA4A1C125C082A01DB26
:100810000F2200E00022030024ADED1801E0401E8D
:100820006D1E5B1E2E789642F9D00F2A04D14A1C09
:10083000D25C521C491CCA54002B04D524AC401C69
:100840000199091D0191421E10D4A3186946097827
:100850001D783035EEB23A2E01DB4D19C6351D70CC
:10086000521E5B1E002AF3D56A4611700E990029AC
:1008700000D4B5E0411E0E91B2E07F007F080198E0
:1008800062494843624900F0A7FD019007200199A1
:10089000401A002805DD02003000390000F055FB49
:1008A0000AE0424200205B4900F04FFB02000B00CF
:1008B0003000390000F0BFFD6A465278662A02D146
:1008C000019A0A3200E006220E9B9A18142A00DDD3
:1008D000142224AB30241C705C1C02E030A803C836
:1008E000139A002A3CDD30AB03C3139230A803C82F
:1008F00000F06CFC2E9006460834042530000A21D6
:1009000000F07EFD0F0030000A2100F079FD0600A6
:100910003037601E077030000A2100F071FD0F00B3
:1009200030000A2100F06CFD0600A41E303727704D
:100930006D1EE3D108341398083813900028CDDDDC
:100940002E9800F05BFC02000B0030A803C800F0FA
:10095000CCFC0022304B00F0CFFD30AA03C2C5E72B
:100960002F98211A24A8441C04E0491E0198401E17
:100970000190641C20783028F7D0684640786628BB
:1009800002D10198401C06E068464078652801D1F4
:10099000149800E000200E9A1018814200DA481ED8
:1009A00000281DD4884204DA215C342901DD392273
:1009B00000E030220300611ECD1801E0401E6D1ED4
:1009C0005B1E2E789642F9D0392A02D1E25C521C85
:1009D000E254002B04D50C00401C0199491C0191E4
:1009E000019D07001394684606780E9C38B20028D3
:1009F00004DC149F044878440E3013906846407815
:100A000066280BD16D1C23E0A83800009775000004
:100A1000A08601000000F03F84D7974168464078E7
:100A2000672845D128B20321C943884244DBA0424C
:100A300042DA6D1C02A8008F1299C0B2084203D19D
:100A400038B2A04200DC040028B2241A00D50024E9
:100A50002EB2002E00DDA9E00898411C089130213B
:100A6000059A1154002C05DC02A8008F1299C0B21F
:100A7000084205D00898411C08912E21059A11546E
:100A80007042844200DA65422DB268420B906419CC
:100A900038B2844200DA27003FB209973A0013992E
:100AA0000598089BC01800F0F3FAE01B0C90C8E012
:100AB000612E14D1702615E038B2A04206DA02A9E0
:100AC000098F129AC9B2114200D10400641E00D5E8
:100AD0000024672E01D1652604E0452602E0412E60
:100AE00000D150260898411C089113990978059A5D
:100AF00011541398411C002C05DC02A8008F129A97
:100B0000C0B2104218D00898421C08922E22059BB1
:100B10001A54002C10DD7F1E38B2844200DA270000
:100B20003AB20598089BC01800F0B2FA3FB2089894
:100B3000C0190890E01B0B900598089940180670A2
:100B400029B2002903D42B214170871C03E02D22F8
:100B50004270871C4D42002412A928000D0005E0B8
:100B60000A2100F039FC2970641C6D1C00B20028B9
:100B7000F6DC012C06DC20203043652802D1302031
:100B800038707F1C002C09D1302038707F1C07E0A2
:100B9000641E12A8005D303038707F1C002CF7DC1A
:100BA000059808994018381A09904AE038B229B2D5
:100BB00088421CDA3AB213990598089BC01800F0D5
:100BC00067FA3FB20898C0190890F11B0B91002CEE
:100BD00005DC02A9098F129AC9B2114205D02E2153
:100BE000059A11540998401C09900C9429E02AB2E6
:100BF00013990598089BC01800F04AFA08988019C4
:100C000008907D1B002C05DC02A9098F129AC9B23D
:100C1000114204D0411C08912E21059A115428B28A
:100C2000844200DA25002AB2139881190598089B9E
:100C3000C01800F02DFA2DB2089840190890601BDA
:100C40000B9002A83821405C14210140102900D0EB
:100C5000C4E00798089940180B9940180999401862
:100C60000C9940180F99884200DBB7E0081A0A90E7
:100C7000B4E002AA3A20105C622808D068280ED09E
:100C80006A2814D06C281DD0712810D01AE034982E
:100C900001680868091D349B1960C0B218E03498D7
:100CA00001680868091D349B196080B210E034980F
:100CB0000068C31D072083433498036003CB349C32
:100CC000236006E0349801680868091D349B1960A8
:100CD000002102AB03C3108F1299C0B208425BD04F
:100CE00002A803C8002901D1002855D06846007821
:100CF0002021014378294FD1079815A930220A54A1
:100D0000401C421C07926A4612780A5444E002AA28
:100D10003A20105C622808D068280ED06A2814D0C7
:100D20006C281DD0712810D01AE03498016808682A
:100D3000091D349B196040B218E0349801680868B6
:100D4000091D349B196000B210E034980068C31D7F
:100D5000072083433498036003CB349D2B6006E067
:100D6000349801680868091D349B1960C11702ABEB
:100D700003C3002902DA07982D2109E0108F2042D1
:100D800002D007982B2103E0C00705D50798202142
:100D900015AA1154401C079015A8079940180590F2
:100DA0006846017802A800F03EF817E01498079012
:100DB000349800680168001D349A106015A801700D
:100DC0000CE014980790252015A908706846007853
:100DD000002803D007946846007848700F98079958
:100DE000401A0A99401A0899401A0B99401A099911
:100DF000401A0C99401A019002A83821405C400723
:100E000001D5FFF798FA202069460870019800285C
:100E100001DCFFF790FA019C329DFFF77FFA00207A
:100E2000C04335B0F0BDF2B586B0040025696F2926
:100E300001D1082707E00846FFF73EF9782801D0DE
:100E40000A2700E010273C2603CC083C04AA03C272
:100E50006A46127E642A03D06A46127E692A09D144
:100E6000002907DA04A803C800220023121A8B41C4
:100E700004A80CC004A803C800290DD100280BD178
:100E8000206B002808D1082F3DD13820205C0007B6
:100E900039D53B26302035E00294009504A830C8AF
:100EA000761E0196200029003A00FB1700F0E6FBB1
:100EB0003032D0B23A280DDA00988255200029004D
:100EC0003A00FB1700F0DAFB04000D0007D1002CFC
:100ED00005D10AE06846007E8218AF32ECE702983E
:100EE000C068009989198842DAD3029C009D082FB6
:100EF00009D13820205C000705D5A85D302802D034
:100F0000761E3020A8553C20801BA061A919E16005
:100F1000216B884206DA081A2062208F1C490140A2
:100F2000218710E000290ED53821615C14220A4087
:100F3000102A08D1616B6269891A226A891A081A13
:100F4000002800DD206207B0F0BDF8B50026114F83
:100F500004000D00009214E0C00707D532003B00EA
:100F60002000290000F0C8FA04000D00009840108D
:100F700000903000390032003B0000F0BDFA06005E
:100F80000F0000980028E7D120002900F4BD0000E0
:100F9000EFFF000000002440F8B50024002B11D022
:100FA00007000E0014001D002178B068B847B0603B
:100FB000002809D0F06A401CF0620020641C6D1EFD
:100FC000F2D104002000F2BD0020C043F9E702681E
:100FD000531C036011707047C9B202788A4203D073
:100FE000401C002AF9D100207047FEE780B5002898
:100FF00001D100BF07A006490B68002B03D02222B5
:101000000021984701E000F077FB222002BD00009C
:10101000DC010020636F6E73747261696E74206806
:10102000616E646C65723A20626164206D657373F1
:1010300061676500431C0178401C0942FBD1C01A5E
:101040007047FEE7C9B2521E05D30378401C8B429D
:10105000F9D1401E704700207047FEE770B4103A87
:1010600003D378C9103A78C0FBD2530701D318C90B
:1010700018C001D508C908C0D20704D30B88038063
:10108000891C801C002A01D50B78037070BC704746
:101090008B0701D18307E1D0124205D00B78491CA0
:1010A0000370401C521EF9D1704710B5144600F071
:1010B00002F8226010BD4A0053155B1C08D0520D87
:1010C00006D003231B02FE3AD21A1305C91A704731
:1010D0000022704730B4012464054D00EC420BD867
:1010E0005D00EC4208D80C001C4364000443144328
:1010F00004D2994200D1904230BC7047FCD08B4260
:10110000FAD18242F8E730B4012464054D00EC4284
:101110000BD85D00EC4208D80C001C43640004436B
:10112000144304D28B4200D1824230BC7047FCD0C1
:101130009942FAD19042F8E7124217D40023DB43D8
:101140005B0D9C464B005B0D06D0634504D09B189D
:10115000634502D21205891870476246090D114392
:101160000905002000B500BF00BF00BD52424B0082
:101170005B0DF1D05B1C5B05EED25B0D934102D998
:101180001205891A70470BD10B031B13C90FC9072E
:10119000821C002043411343E4D912051143E1E7C7
:1011A000C90FC9070020DDE7F4464A1805D200F050
:1011B0000FF801D580174008604700F009F80121B9
:1011C000C907884200D90800404260474A1812D235
:1011D000400DC90208430121C9070843520D4021AF
:1011E0000901521A521C06D452421F3201D4D04077
:1011F0007047C017704700207047FEE70100422289
:101200001201D21E004207D002D4521E0018FCD593
:10121000C10A400512058918704700000100EED58B
:101220004042F446FFF7EBFF0122D207114360472B
:101230008B4200D1824205D98446100062468C461A
:1012400019006346DF184C18640D7F0D3AD0661CF8
:10125000760537D0E61B352E34DCDB022B43DB0A68
:101260000C0DC9022943C912202E0DDB1700203EA8
:1012700006D01F00F741F3405F400026012A774166
:10128000C01871410DD217E01700F741F2405740E6
:10129000F3415A40B340F3405A4000268018594168
:1012A0000AD3A21C52050FD0C207012F72411700AA
:1012B0004008CB0718434908641C24054208AF4185
:1012C00070416141F0BC7047641C21050020F9E7C2
:1012D0006B4010E06B40ABE7F742F3D1E943F1E735
:1012E0002442EFD100200021ECE7F0B40125ED0706
:1012F0000F005F40EED40C00871A9C4105D2C01B42
:10130000A141D219634169406B40AE0ADF184C1805
:10131000F442E1D2640D7F0DE2D0E61B362ED1DC23
:10132000DB022B43DB0AA4460C0DC9022943C90A80
:10133000012E28DC04D1D6075208DF073A435B08A8
:10134000EF0A76429041994114D039423BD1B61907
:1013500040414941761C394204D1761C001849416C
:101360003942FAD0B9436746B74208D9A41B2405CD
:101370002143A7E70042EAD13642E8D1A2E7E40AD6
:10138000E10700209EE7202E0BDD203E1F00F340EA
:10139000F7415F40012A002257417E429841914126
:1013A0000BE01700F741F2405740F3415A40B34079
:1013B000F3405A407E42904199410A0303D2641E91
:1013C000B619404149410027641E24054208AE4138
:1013D00078416141F0BC7047CA0F00D04942031008
:1013E0005A400DD004B500D3404200F009F8009AED
:1013F000D20701D34942124200D5404204BD000049
:10140000094214D088420FD30122030C01D10004F9
:101410001204002300185B418B4200D35B1A524137
:10142000F8D319001000704701000020704708B57C
:1014300000F068F908BDF0B40E005E400125ED072C
:101440002E40B446AE0ADF184C18F4423BD2F742A5
:1014500041D2640D43D07F0D38D0E41BC902DB02BA
:1014600029432B43CF0ADB0A0600B61A9F4104D258
:10147000641EB6197F41B6185F416812800D2418AA
:101480000018844222DCE80C0021B6197F41B61A0C
:101490009F4102D2B6185F413F1C40414941F4D3FD
:1014A000241C21DD2405B6197F41B61A9F4105D3BE
:1014B0003743C60737430026012F70416141664616
:1014C0003143F0BC7047FCD1F74205D20020C14344
:1014D00049054908F3E704D00020C143F1E77F0D37
:1014E000FAD000206146ECE72442FAD1401C614169
:1014F0000F03F6D30020E2E7F0B50E005E400125B1
:10150000ED072E40B446AE0ADF184C18F44208D25C
:10151000F7420ED2640D01D07F0D12D1002061463A
:10152000F0BD05D1F74201D87F0D05D10020C143A0
:10153000F0BDFBD1640DF9D00020C1434905490835
:101540008FE0E419C902DB0229432B43DB0A460D75
:10155000C00231438E4630B487B295B27D432E0C23
:10156000ADB2140C7C43A419260C240425439CB270
:101570007C43A419190C7943270CC919A4B20F0490
:101580003C43090C000C97B247432E0CBE1935435F
:10159000ADB2170C4743360CBF19A6B2BF193E04B3
:1015A0003543240C3E0C36199FB24743BF19BCB2D9
:1015B0003E0C89191F0C47437F183E043443390CF5
:1015C000704680B297B247432E0CBE193543ADB278
:1015D000170C4743360CBF19A6B2BF193E0435435A
:1015E000240C3E0C36199FB24743BF19BCB23E0CC7
:1015F00089191F0C47437F183E043443390C774642
:101600003F0C90B278432E0C80190604ADB22E43E5
:10161000050CA0B22D18120C7A435019020C80B29E
:10162000240CA4189AB27A43121914042043120C01
:1016300089181B0C7B43C91830BCEF0A394203D10F
:10164000B61940414941641E6F12BF0DE41B0BDB0C
:10165000FF19BC4211DA240500274208AE41784147
:10166000614166463143F0BD641C05D1401C6141B7
:10167000CF0201D34908F4E750E75DE712422DD0CD
:10168000994231D970B500251B4209D00C000021C8
:1016900012E01100FFF7B4FE0A000021002370BD24
:1016A0000942F6D00024012649186441944200D32F
:1016B000A41A7641F8D33100012601E0764109D21F
:1016C000001864416D41A41A9D41F7D2A4185D41F0
:1016D000B619F5D3300022002B0070BD1B42CFD1CC
:1016E00008B500F011F808BD01D19042CAD202003D
:1016F0000B0000210020704780B5012000F006F8A3
:1017000001BDFEE77047FEE77047FEE780B500BF0A
:1017100000BF024A11001820ABBEFBE72600020002
:1017200010B5040001D1012010BD3D20205C00282F
:1017300004D13C216054200000F0B8FD26E03D219A
:10174000415C012901D00120704702213D228154D2
:1017500002680121D3680B43D36002681C4B9A4294
:1017600005D01C4B9A4202D01B4B9A4208D1936879
:101770001A4A1A40062A07D00B049A4204D002687B
:1017800012681143006801600020704702203D216B
:101790006054211D206800F0D7FA012048216054D0
:1017A0003E2160543F2160544021605441216054E7
:1017B00042216054432160544421605445216054C7
:1017C00046216054472160543D216054002010BDE3
:1017D000002C0140000400400040014007000100CF
:1017E00010B5040001D1012010BD3D20205C00286F
:1017F00004D13C216054200000F0C8FDC6E738B594
:101800000400002901D13E2010E0042901D13F202D
:101810000CE0082901D1402008E00C2901D1412029
:1018200004E0102901D1422000E04320205C01287F
:1018300001D0012032BD0220002901D13E2210E05A
:10184000042901D13F220CE0082901D1402208E0FF
:101850000C2901D1412204E0102901D1422200E0EB
:101860004322A0540122206800F040FC226817485F
:1018700013498A4207D0824205D0154B9A4202D0C2
:10188000144B9A4204D1536C80252D021D4355649C
:10189000236801228B4204D00A498B4201D0834243
:1018A00007D1996808480840062807D011048842E3
:1018B00004D018460068024318460260002032BD7A
:1018C000002C0140000400400700010000400140DE
:1018D000004401400048014004000E000020694619
:1018E00008700125300006D0042E3AD0082E3FD0D3
:1018F0000C2E44D04AE02068C168324A0A40C260D7
:10190000606A00F045FD00223100206800F0EEFB27
:1019100022682D482D492A4B9A4208D02C4B9A42D6
:1019200005D02C4B9A4202D02B4B9A4209D1136A14
:101930000B4006D1136A034003D1536C274F1F405D
:1019400057642268136A194007D1116A084004D10C
:1019500010460068A84311460860002E19D13E20A9
:1019600028E02068C1681E4A0A40C260A06AC8E731
:101970002068C1681B4A0A40C260E06AC1E720686B
:10198000C168194A0A40C260206BBAE76846057010
:1019900011E0042E01D13F200CE0082E01D140209F
:1019A00008E00C2E01D1412004E0102E01D142208C
:1019B00000E04320255468460078F2BD0000000096
:1019C000002C0140FFFDFFFF440400001111000046
:1019D000004001400044014000480140FF7FFFFFFC
:1019E000FFFBFFFFFFF7FFFFFFEFFFFFF8B504006E
:1019F0002068C1680091056900270226354214D08D
:101A0000314012D00221C94301610121217780694F
:101A1000800703D0200000F0FDFC05E0200000F06E
:101A2000FAFC200000F0F8FC2777680717D500982B
:101A3000400714D520680421C943016126778069D5
:101A4000C0218900014003D0200000F0E3FC05E044
:101A5000200000F0E0FC200000F0DEFC27770826E4
:101A6000354216D00098304013D020680821C94371
:101A7000016104212177C069800703D0200000F0B4
:101A8000C9FC05E0200000F0C6FC200000F0C4FC0A
:101A900027771020054217D00099084014D02068FD
:101AA0001021C94301612677C069C0218900014026
:101AB00003D0200000F0AEFC05E0200000F0ABFCFD
:101AC000200000F0A9FC2777E907C90F0098C2079A
:101AD000D20F114206D00120C043216808612000C6
:101AE00000F09BFC802682208001284008D00098CE
:101AF000304005D0154821680861200000F08EFCB8
:101B0000E80508D50098064005D0594821680861C5
:101B1000200000F084FC4020054209D000990840D4
:101B200006D04020C04321680861200000F078FC06
:101B30002020054009D00099084006D02020C0434D
:101B400021680861200000F06CFCF1BD7FDFFFFF21
:101B5000F1B582B000206B46187002983C23C05C3F
:101B6000012801D10220FEBD0120029B3C24185512
:101B70000827404EC5020C00002A0AD0042A18D0BB
:101B8000082A28D00C2A36D0102A46D0142A54D03D
:101B900065E00298006800F016F902980068816913
:101BA0000F438761816904229143816181692269C0
:101BB0000EE00298006800F040F902980068816920
:101BC0000D43856181690E40866181692269120237
:101BD0000A43826145E00298006800F062F90298C9
:101BE0000068C1690F43C761C16904229143C161A3
:101BF000C16922690EE00298006800F089F9029834
:101C00000068C1690D43C561C1690E40C661C16903
:101C1000226912020A43C26123E00298006800F0C0
:101C2000A9F902980068416D0F434765416D042290
:101C300091434165416D22690EE00298006800F011
:101C4000C5F902980068416D0D434565416D0E4030
:101C50004665416D226912020A43426501E0694608
:101C60000870002002993C22885468460078FEBD26
:101C7000FFFEFFFFFFFBFFFFF8B5040000266846EC
:101C800006703C20205C012801D10220F2BD270013
:101C90003C3701253D7002203D22A0542068826817
:101CA000284B13408360086802003FD010283DD0C5
:101CB00020283BD0302839D0402830D0502820D0A0
:101CC000602825D0702806D02B03984235D05B00C1
:101CD00098420AD02FE0CB684A688968206800F0F3
:101CE000DBF920688168772208E0CB684A68896858
:101CF000206800F0D1F920688168AA030A43826055
:101D00001BE0CA684968206800F094F950210EE091
:101D1000CA684968206800F0A1F9602107E0CA6834
:101D20004968206800F086F9402100E00100206841
:101D300000F0A6F901E0684605703D2025543E708C
:101D4000FFF739FE8800CEFFF0B506686E4A6F4B8C
:101D5000844C854DA84201D0A04206D17027BE43D5
:101D600037004E683E43A8420BD0A04209D07F4CBA
:101D7000A04206D0984204D0904202D0914CA0429A
:101D800003D17B4C3440CE6826438024A6434C6963
:101D9000344304608C68C4620C688462A84206D034
:101DA000984204D0904202D0864A904201D10969FB
:101DB0000163012141610269114003D001690122DF
:101DC00091430161F0BDF8B5036A026A0124A243A0
:101DD0000262426884697C4D25400C682C43009463
:101DE0000224A3438C681C43474B484D5E4EB042CF
:101DF00006D0A84204D0984202D0724FB8420CD10B
:101E00000827BC432700CC683C430427BC43B042AE
:101E100006D0A84204D0984202D06A4B984205D11D
:101E2000534B13404D691D438A692A434260009A0F
:101E30008261496841630462F1BD70B5026A036A58
:101E40001024A343036243688469754D25400C68E0
:101E500024022C432025AA438D682D011543424AB4
:101E6000904208D1802295432E00CA68150135435F
:101E70004022954308E0254A904205D0224A9042EC
:101E800002D0504A904206D1814A1A404B698E696D
:101E90001E43B30013434360846149688163056254
:101EA00070BD70B5026A036A5E4C1C4004624368F0
:101EB000C469454D25400C682C435B4D15408A682C
:101EC00012022A43284DA84207D1584D1540CA682E
:101ED00016022E43564A324008E00C4DA84205D067
:101EE000094DA84202D0374DA84206D16F4D1D4082
:101EF0004B698E691E4333012B434360C4614968BB
:101F0000C163026270BD0000004401400040014016
:101F100030B5026A036A504C1C4004624368C469CD
:101F20003F4D25400C6824022C435A4D15408A68C9
:101F300012032A430C4DA84208D05D4DA84205D09B
:101F40005C4DA84202D01F4DA84204D15A4D1D40FD
:101F50004B699B012B434360C46149680164026281
:101F600030BD000000040040002C01400020004073
:101F7000FFFCFFFF70B5036A504A046A1440046214
:101F80004468456D4E4E2E400D6835434D4E1E4003
:101F90008B681B0433434C4EB04208D0444EB042D1
:101FA00005D0444EB04202D0484EB04203D1224048
:101FB0004C692402144344604565496881650362A5
:101FC00070BD0000004801408CFFFEFF30B5026A82
:101FD000036A3F4C1C4004624368446D3D4D2540FC
:101FE0000C6824022C433C4D15408A6812052A4394
:101FF000354DA84208D02E4DA84205D02D4DA842FF
:1020000002D0324DA84204D1344D1D404B699B0291
:102010002B43436044654968C165026230BD0000DE
:10202000FF8CFFFEFFFEFFFFFFFDFFFFFFF7FFFF3F
:10203000FFFBFFFF30B5036A046A0125AC4304626D
:102040008469F025AC431201224382610A22934342
:102050001943016230BD0000FFEFFFFF30B5036A96
:10206000046A1025AC43046284691E4D25401203A6
:102070002A438261A022934309011943016230BDC2
:102080008268174B1340194307220A438260704746
:10209000FFF3FFFFFFDFFFFF30B58468124D2540DF
:1020A00029430A4319021143816030BDFFCFFFFF6E
:1020B0000040014000440140FFBFFFFFFFFFFEFF63
:1020C0008FFFFEFFFFFFFDFF002C01400048014095
:1020D000FFFFEFFFFF8FFFFEFFFFDFFFFFFFFBFFB5
:1020E0008FFFCFFFFF0FFFFFFF00FFFF10B5C906F7
:1020F000C90E036A01248C40A3430362036A8A4029
:102100001A43026210BDFEE730B59BB010220021D9
:1021100017A800F087F90C220021684600F082F928
:102120001C22002110A800F07DF93422002103A810
:1021300000F078F98A4D8B4828603F2068600024C1
:10214000AC608948E8602C616C61AC612800FFF7E5
:10215000E7FA002801D000F0C8F98020400117906C
:1021600017A92800FFF788FD002801D000F0BDF96D
:102170002800FFF735FB002801D000F0B6F9302029
:10218000009080208003019002946946280000F0AE
:10219000AFF9002801D000F0A8F96020109031209C
:1021A000119012941394149415941694042210A967
:1021B0002800FFF7CDFC002801D000F096F9039429
:1021C0000494059406940794802080010890099453
:1021D0000A940B9400030C900D940E940F9403A991
:1021E000280000F0B6F9002801D000F07EF92800A0
:1021F00000F091F81BB030BD30B587B0102200213F
:1022000003A800F00FF90C220021684600F00AF93B
:10221000564C574820603F2060600025A560554817
:10222000E0602561A5612000FFF77AFA002801D05F
:1022300000F05BF980204001039003A92000FFF724
:102240001BFD002801D000F050F9202000900295DD
:102250006946200000F04CF9002801D000F045F953
:1022600007B030BD3EB50C220021684600F0DAF818
:10227000414C424820603F2060600025A5603D48F9
:10228000E0608020A0612000FFF74AFA002801D01A
:1022900000F02BF92020009002956946200000F004
:1022A00027F9002801D000F020F937BD80B501687A
:1022B00033482C4A914208D1C10C42680A4342601B
:1022C000406801400091009801BD294A91420ED119
:1022D000022102680A4302600068014000910098F0
:1022E00000220021102000F0B8F9102010E0234A4D
:1022F00091420FD1102102680A4302600068014038
:102300000091009800220021112000F0A6F9112070
:1023100000F0A8F901BD10B586B004001422002118
:1023200001A800F07FF820680E49884215D10420EA
:1023300014490A6802430A6009680840009000983E
:1023400080208000019002200290002103910491DE
:10235000059001A90C4800F0ABF906B010BD0000D3
:10236000F8000020002C0140E70300004401002099
:10237000000400400F2700009001002000100040E2
:102380003C10024034100240000800507047FEE745
:10239000F8B50021002401262522825C022A03D000
:1023A0000421C16301242EE0026813680E25AB43AB
:1023B000136002681368B3431360436C144A1D68CA
:1023C00015401D60114B1D68AC464025475D1C251E
:1023D0003D400127AF4065462F431F60C36C856CAD
:1023E0006B60036D002B06D01B681A40036D1A60EA
:1023F000826D436D5A602522865424228154816B5C
:10240000002900D088472000F2BD000004000240EF
:10241000FFFEFFFF70477047704770477047704777
:102420007047704710B5040008001100020020003A
:1024300000F002FA200010BD80B500F025FA00F08F
:102440001DF800F035FAFFF75FFEFFF7D5FE00F04C
:102450007DFAFFF707FF00F0EDFA04210448FFF7CB
:10246000CEF90448FFF76BF90348FFF768F9FEE778
:10247000F8000020440100209001002030B591B008
:102480003422002104A8FFF7CDFF10220021684666
:10249000FFF7C8FF8020800000F03AFB022404947C
:1024A000E001079000250895402009900B940C94BA
:1024B0000D9508200E9080030F900003109004A843
:1024C00000F04CFB002801D000F00FF8072000902E
:1024D0000194029503950221684600F023FD00282F
:1024E00001D000F002F811B030BD72B6FEE7FEE791
:1024F000F0B53C22825C012A01D10220F0BD01220C
:102500003C23C25402233D24035505686E68AB6822
:10251000354CA54203D1354F37404E683E437027B6
:10252000BE430F6837436F600568A54205D0304C45
:10253000A54202D02F4CA54204D18024A343896830
:102540001943A9603D21425400213C2281540020BE
:10255000F0BD10B53C22825C012A01D1022010BDE1
:1025600001223C23C254CA68234B13408A681A4391
:10257000224B13404A681A43214B13400A681A43FE
:10258000204B13400A691A43164B13404A691A43F9
:102590001D4B13400A6B1A431C4B13408A691204EB
:1025A0001A431B4C1440CB69234302680E4CA242D1
:1025B00010D10E4C1C408B6A1B052343154C1C404C
:1025C0000B6A2343144C1C404B6A2343134C1C409E
:1025D000CB6A23435364FFE700213C22815400204F
:1025E00010BD0000FFDFFFFF002C0140FFFF0FFFC9
:1025F0000004004000400140FFFCFFFFFFFBFFFF25
:10260000FFF7FFFFFFEFFFFFFFBFFFFFFFFFF0FF41
:10261000FFFFFFEFFFFFFFFEFFFFFFFDFFFFFFDFFD
:1026200010B5C20018231340FF249C40E2438907E1
:10263000090E9940030004D419489B089B00C01858
:1026400006E0184B0007000F0838800880001818B3
:1026500003681A401143016010BD80B5FFF7E0FF29
:1026600001BD0000010005D40121C006C00E81405B
:102670000D480160704710B5401E80214904884212
:1026800001D3012010BD094C606003210020C0432C
:10269000FFF7C6FF0020A0600721216010BD0000E9
:1026A00000E400E01CED00E000E100E010E000E0EC
:1026B000FFB500220F2302932CE0052602E0584FBD
:1026C000B842FAD1AE402643009C2660554C25689E
:1026D000DC4325404E68F60200D51D43514E35605F
:1026E000756825404F68BF0200D51D4375604E4D8B
:1026F0006E6826404D68AD0300D51E434A4D6E609E
:102700002E6834404E68F60302D526001C00344380
:102710002C60521C0B681C00D44079D001259540D8
:102720002B40F6D054000327A740FE4301964E6885
:10273000B707BF0F012F03D0B607B60F022E0ED179
:102740008768019E3E40CF68A74037438760466850
:10275000AE434D68EF06FF0F9740374347600D7952
:10276000AD07AD0F032D25D0C568019E2E408D68A5
:10277000A5403543C5600D79AD07AD0F022D19D1C8
:10278000D508AD0045192E6A039697001C263E40D9
:102790006F463E70039EB446029F6E463678B74041
:1027A0006646BE43B4460F696E463678B740664605
:1027B00037432F6207680326019D3D404F6837402D
:1027C000BC4627006446BC402C4304604C6835047A
:1027D00025409ED0154C9508AD0064190094009CCE
:1027E0002468D70018253D40029FAF40BC43A02776
:1027F000FF05B84201D1002664E70D4FB84201D170
:1028000001265FE70B4FB84200D058E7022659E790
:10281000FFBD002A01D081617047816270470000CE
:10282000000C00500018024080180240601802405E
:1028300000040050000800501206130A1A43130C3B
:102840001A4300BF094205D0830705D00270401C1F
:10285000491EF9D1704700001300103906D330B477
:102860001400150010393CC0FCD230BC490700D31D
:102870000CC000D504C0890002D30280801C00294E
:1028800000D502707047FEE710B5002407480168C4
:10289000820D0A430260032000F05AFC002801D098
:1028A000012401E000F07AFC200010BD002002406D
:1028B000F8B586B0142200216846FFF7B3FD042165
:1028C000204802680A430260026811400591059998
:1028D000202102680A4302600268114005910599AF
:1028E000012401682143016000682040059005989B
:1028F000154F0022C0213800FFF78BFF260201226E
:1029000031003800FFF785FF600300900025019536
:10291000029469463800FFF7CBFEC0200090019476
:1029200002200290039569463800FFF7C1FE009629
:1029300001940295039569463800FFF7B9FE07B088
:10294000F0BD00BF341002400008005010B5354CF7
:1029500035482060E120400260600020A060E06017
:1029600020610C216161A061E06120626062A0626F
:10297000200000F02BFC002801D0FFF7B6FD00215D
:10298000200000F00EFF002801D0FFF7AEFD00216F
:10299000200000F01FFF002801D0FFF7A6FD200057
:1029A00000F0E2FE002801D0FFF79FFD10BD30B51A
:1029B0008DB004001422002101A8FFF733FD1C2272
:1029C000002106A8FFF72EFD20681749884226D16E
:1029D000012406940025079506A800F051FF002861
:1029E00001D0FFF782FD1148A103C2680A43C2600B
:1029F000C268114000910099042102680A430260F4
:102A0000006801400091009830200190022002905F
:102A100003950495059401A90548FFF749FE0DB0FB
:102A200030BD00001000002000380140341002408A
:102A30000008005010B5324C3248206032486060C7
:102A40000020A0600121E16020616061A061E0617F
:102A50002062200000F0C6FF002801D0FFF745FDEE
:102A60000021200001F048FA002801D0FFF73DFDC9
:102A70000021200001F05DFA002801D0FFF735FDAC
:102A800010BD30B58DB004001422002101A8FFF75D
:102A9000C9FC1C22002106A8FFF7C4FC20681949C4
:102AA00088422AD1202006900025099506A800F02A
:102AB000E7FE002801D0FFF718FD0120134C216824
:102AC000014321602168084000900098C020C000A8
:102AD000019012200290039504950620059001A90B
:102AE000A020C005FFF7E4FD80208003A16801431A
:102AF000A160A1680840009000980DB030BD0000B2
:102B0000A400002000540040B57DB11034100240F4
:102B100010B50E4C21680E4A0A4002432260610D36
:102B2000884210D10B480068062148430A49FEF745
:102B300067FC401C00E0401E6169490503D5002880
:102B4000F9D1032010BD002010BD0000007000402E
:102B5000FFF9FFFF0C00002040420F00FEB5070008
:102B60001BD0A84C3878C00719D5A1683820084078
:102B7000E1688025AD02102808D18807800F03285E
:102B800006D079686808814234D13BE00828F8D142
:102B90002068054003D07868002800D1B5E1387876
:102BA00080077BD5A06838210140E268B948BA4D5A
:102BB00010294ED19207920F022A4CD0F9680029B1
:102BC00000D196E0216808403969014321602068FE
:102BD000A10D0143216001F0D5F93E0007002068F6
:102BE000400500D57DE001F0CDF9C01B0328F6D3E8
:102BF0000320FEBDA022D202914207D121688200AB
:102C00000A43226021680843206007E02068A34946
:102C1000014021602068A2490140216078680028B5
:102C20000BD001F0AFF9060020682840B7D101F0C1
:102C3000A9F9801B6528F7D3DAE701F0A3F90600AC
:102C400020682840ABD001F09DF9801B6528F7D3A0
:102C5000CEE70029B2D12268520502D5FA68002ACF
:102C60003ED0626815407A6912022A4362600029E8
:102C70000ED121680840396901432160A44801212F
:102C800022689204520F9140FEF7BAFBA1490860F6
:102C9000A148006800F05CFA002821D102253878AC
:102CA00000070AD5A06838210140182931D1206ECB
:102CB000284002D0B869002812D03878400700D4E4
:102CC000A9E000200190A06838210140202942D1CC
:102CD000E06D054000D19EE0B868002800D09AE081
:102CE00013E16068054070690002284360603700A6
:102CF000D4E7206889490140216001F043F90500CB
:102D000020684005CAD501F03DF9401B0328F7D3E0
:102D10006EE7B8690028206E0ED0012101432166BC
:102D200001F030F90600206E2840C6D101F02AF9E2
:102D3000801B0328F7D35BE701218843206601F05D
:102D400021F90600206E2840B7D001F01BF9801B46
:102D50000328F7D34CE7E806E16B014008D1E16BAB
:102D60000143E163E16B084000900098012001906D
:102D70006B4D2868C00512D4A00D009028680099FA
:102D80000143296001F0FEF806002868009901401F
:102D900005D101F0F7F8801B0328F6D328E7B868BF
:102DA0000121012805D00528E06D06D10422024347
:102DB000E265E06D0143E16505E08843E065E06DB3
:102DC00004218843E0650226B86800280CD001F091
:102DD000D9F80500E06D304016D101F0D3F8401B62
:102DE000A4498842F6D303E701F0CCF80500E06D72
:102DF000304009D001F0C6F8401B9E498842F6D306
:102E0000F6E600BF001002400198002803D0E06BF6
:102E100099490140E163F869002855D0A16838223A
:102E20000A40102A52D08026B6049449022820680D
:102E300038D10140216001F0A5F80500206830403C
:102E400005D001F09FF8401B0328F7D3D0E6E068D7
:102E50008B490140386A0843796A0143B86A000225
:102E60000843F96A0143386B0843E0602068710841
:102E700001432160E068F1000143E16001F082F864
:102E80000500206830401FD101F07CF8401B03286A
:102E9000F7D3ADE6FFC7FFFFFF80FFFFFFFFFEFF99
:102EA000FFFFFBFF0140216001F06CF80500206886
:102EB000304005D001F066F8401B0328F7D397E6B1
:102EC000E06898490140E1600020FEBD01281CD067
:102ED000E0688107890F3A6A914216D1702101405A
:102EE0007A6A914211D1FE21C9010140BA6A1202E7
:102EF00091420AD1F82189030140FA6A914204D132
:102F0000400F4007396B8842DED00120FEBD000033
:102F10000024F4000C00002008000020FFFEFFFF4A
:102F200000700040F8B5070066D000917E48006848
:102F30004007400F884218D27B4C20680721884305
:102F400000990143216001F01DF8009D06002068F2
:102F50004007400FA84207D001F014F8801B4549F4
:102F60008842F4D30320F2BD00953968704C0220EA
:102F700001420CD0490704D5A168E022D2010A43DE
:102F8000A260A168694A0A40B9681143A160072597
:102F9000ED433978C90732D57968012918D12068FD
:102FA000800329D5A06828400143A16000F0EAFF12
:102FB0003E000700A068382101407068C0008142CF
:102FC0001CD000F0DFFFC01B2A498842F2D3C9E7BA
:102FD000022902D12068800103E0002903D1206882
:102FE0004005DFD408E0032903D1226E1040D9D177
:102FF00002E0E26D1040D5D10120F2BD370000980B
:10300000494909684907490F884217D2464800686C
:103010000540009828434449086000F0B3FF009D34
:103020000600414800684007400FA84206D000F063
:10303000A9FF801B0F498842F3D393E738784007F4
:1030400005D5A0683B490140F8680843A06000F03E
:1030500019F83949A2681205120F9200895CC90655
:10306000C90EC840354908603548006800F070F85E
:10307000F2BD000089130000FFFFFFEFFFFFFFFE1E
:103080008C80C11F30B507212F48294C3823A268F6
:103090001A4006D123680122DB0A19408A40110038
:1030A0001EE04208A5681D40082D01D1100030BD6A
:1030B000A5681D40102D16D1E368E5682D0929404B
:1030C000491C7F259B079B0F032B00D11000FEF7A7
:1030D00097F9E168090A0D406843E168490F491C06
:1030E000FEF78EF930BDA0681840202802D180205C
:1030F000000230BDA0680340182B02D1FA20C001A5
:1031000030BD002030BD0F4801680C4800680F4AF0
:103110004904490F8900515CC906C90EC84070476F
:1031200000000000FCFFFEEF00200240FFF0FFFF68
:1031300000100240FF8FFFFFB44200080C00002087
:1031400008000020081002400024F400AC430008EE
:1031500070B5060000240F4D2978002916D0FA20FA
:103160008000FEF74DF901000B480068FEF748F9B2
:10317000FFF781FA002809D1042E07D2002231007E
:103180000020C043FFF769FAAE6000E00124200090
:1031900070BD00BF000000200C00002081B00A4874
:1031A000012142680A43426042681140009100993F
:1031B0008021490502680A430260006801400091CD
:1031C000009801B0704700BF3C10024038B50400C1
:1031D00001D1012032BD250084356868002803D163
:1031E00028702000FFF7E3FB242068602068016856
:1031F000012291430160A06A002802D0200000F063
:1032000047F9200000F086F8012811D020684168B5
:10321000084A0A404260206881682A2291438160FE
:103220002068016801220A430260200000F09EF934
:1032300032BD0000FFB7FFFFF1B584B01F000646A6
:103240005436706B202861D10C000FD06846028084
:10325000002A0BD00498806880214901884207D158
:1032600004980069002803D1E00701D501204EE051
:103270000025F5632120706300F084FE010068469C
:10328000008830806846008870803A000498806822
:1032900080235B01984209D104980069002805D178
:1032A0002500049F0192029104001AE02000F8E733
:1032B00021788162641C11E001980090029B002239
:1032C0008021380000F0BEF900281BD13868002C9E
:1032D000EED12988C905C90D8162AD1C7088401ED8
:1032E000708070880028E7D13800029B0199009116
:1032F0000022402100F0A6F9002803D120207063AD
:10330000002004E020207063032000E0022005B0CC
:10331000F0BD0000F8B5050000270024286801680A
:103320008D4A0A40A96811432A690A436969114311
:10333000EA690A4302604168884A0A40E968114321
:1033400041608168864A0A40A96911432A6A0A4392
:103350008260C16A0F2291436A6A0A43C262814A4B
:103360001021814B984208D110688007800F1ED031
:10337000022810D011D303280BE0A84B984210D19B
:1033800010680C22024012D0042A06D0082A02D06B
:103390000C2A04D00CE002210AE0042108E00821F4
:1033A00006E09F4A904202D09E4A904200D10021FE
:1033B00031A69D4880221202EB69934229D100294F
:1033C00006D0022908D004291ED008291FD048E0C1
:1033D000FFF799FE002845D069680091696A4900A5
:1033E000715AFEF70DF840000099490840180099FD
:1033F000FEF706F8010010398C4A914231D20240A2
:103400000007400F104324E0FFF73CFEE2E7100006
:10341000E2E7002906D0022908D004291CD0082997
:103420001DD01EE0FFF76FFE00281BD069680091D9
:10343000696A4900715AFDF7E3FF0099490840188D
:103440000099FDF7DDFF01001039784A914208D25A
:1034500080B22968C86005E0FFF714FEE4E71000B9
:10346000E4E7012428006830012141800180C76021
:1034700007612000F2BD0000010002000400060008
:1034800008000A000C00100020004000800000012D
:103490002821415C090706D501684A68644B13403E
:1034A000826B1A434A602821415CC90706D501682E
:1034B0004A68604B1340C26A1A434A602821415C43
:1034C000890706D501684A685B4B1340026B1A43B3
:1034D0004A602821415C490706D501684A68574B74
:1034E0001340426B1A434A602821415CC90606D545
:1034F00001688A68524B1340C26B1A438A602821C4
:10350000415C890606D501688A68774B1340026CD6
:103510001A438A602821415C490611D501684A682E
:10352000724B1340426C1A434A60426C80235B0327
:103530009A4205D14A686E4B1340826C1A434A6026
:103540002821415C090606D501684A68694B134089
:10355000C06C184348607047F369FFCFFFCFFFFF8F
:10356000FFF4FF115410024000380140FEB5060080
:10357000370084370024FC6000F004FD0190202512
:1035800030680068000717D55B480090019B002257
:103590002904300000F056F800280DD0EFF3108019
:1035A000012181F3108831680A6880239A430A60F8
:1035B00080F310887D6026E030680068400725D5DC
:1035C0004D480090019B00226904300000F03AF859
:1035D00000281BD0EFF31080012181F3108831689F
:1035E0000A68464B13400B6080F31088EFF310809D
:1035F000012181F3108831688A6801239A438A6027
:1036000080F31088BD603C700320FEBD7D60BD600E
:10361000F46634673C700020FEBD000000440040AA
:1036200000480040004C00400024F400F0FF00007F
:10363000FF7FFFFFFFFFFDFFFFFFFEFFFFFFFBFF21
:10364000FFEFFFFFFEB580273F010824002506009D
:1036500001916846027002933068C0690199014087
:103660000198814201D1012000E0002069460978DB
:10367000884236D108980021C9438842ECD000F036
:1036800081FC0299401A0899814201D3002901D195
:103690000320FEBD306800684007DDD50198802812
:1036A000DAD04028D8D03068C0692040306803D1D3
:1036B000C0693840D0D009E00462300000F020F842
:1036C00030008430C46005700120FEBD30680762A0
:1036D000300000F015F8300084302021C160057002
:1036E000D6E70020FEBD0000FFDFFFFFFFFFEFFF7A
:1036F000FFFF9FFFFFFFF7FFFFFFFF01DFFEFFFF61
:1037000010B5EFF31081012282F31088026813686C
:10371000134C1C40146081F31088EFF310810122D8
:1037200082F31088026893680E4C1C40946081F309
:103730001088C16E01290BD1EFF31081012282F3B1
:103740001088026813681024A343136081F3108863
:1037500020218C2281500021C166416710BD0000EC
:10376000DFFEFFFFFEFFFFEF30B5010084310A7876
:10377000012A01D1022030BD01220A7024224A60B0
:103780000268136814680125AC4314600022426685
:10379000224C1C4000680460202048600A70002011
:1037A00030BD70B50400250084352878012801D18A
:1037B000022070BD012028702420686020680668FF
:1037C000026801239A43026020688268D200D2080E
:1037D000114317E070B504002500843528780128CE
:1037E00001D1022070BD012028702420686020686B
:1037F0000668026801239A43026020688268084BC9
:10380000134019438160200000F00CF82068066026
:10381000202068600020287070BD0000FFFFFFDFDF
:10382000FFFFFFF1F8B50400606E002802D101200F
:10383000012517E0206881680901490F009180681F
:10384000410F00BF0CA600BF09A7785CC000715CE7
:10385000FDF7C2FD05000098385CC0000099715C5E
:10386000FDF7BAFD210068314D800880F1BD0000F0
:10387000010101030701000008040204080101011D
:10388000FEB5040000206A4610704E4D2168890381
:1038900055D5019080204005296B014008D1296B46
:1038A00001432963296B0840019001980120019090
:1038B00045480068A90D01434348016000F062FBE0
:1038C000060041480068C00505D400F05BFB801B82
:1038D0000328F6D323E0296DC020800008403B4F29
:1038E00000280ED0A16988420BD0286D3840296D80
:1038F000802252020A432A65296D354A0A402A6508
:103900002865C0070FD500F03DFB0600286D800735
:1039100009D400F037FB801B2E498842F6D30320E0
:103920006946087004E0286D0740A069384328659F
:103930000198002803D0286B27490140296320788B
:10394000C00705D5A86C0321884361680143A964B9
:103950002078800705D5A86C0C218843A168014315
:10396000A9642078800605D5A86C1C490140E06850
:103970000843A8648020C001216801400DD0A96CD3
:103980008900890862690A43AA6461690204914254
:1039900003D1296882000A432A60216809050DD5F0
:1039A000A96C0F4A0A4021691143A9642169814227
:1039B00004D12868802149020143296068460078C3
:1039C000FEBD00000C10024000700040FFFCFFFF35
:1039D000FFFFFEFF89130000FFFFFFEFFFCFFFFF98
:1039E000FF3FFFFF70B5040001D1012070BD25002D
:1039F000403500266878002803D12E702000FFF79C
:103A000040F8242068702068016801229143016019
:103A10006068214901402068016121681F488A6867
:103A200002408A60E1680129A16801D1C24301E036
:103A3000842212020A4321688A60E168022921680F
:103A40004A6803D180231B01134301E0144B134048
:103A50004B6021684A68134B13434B602168CA6866
:103A60001040C860206961690143A06900020843F1
:103A70002168C860E069216A01432068016020680C
:103A8000016801220A4302606E602020687026638C
:103A9000AE70002070BD0000FFFFFFF0FF7FFFFF52
:103AA000FFF7FFFF00800002F6B583B004000F00AF
:103AB0001E0040304078202800D0D4E00A9800282A
:103AC00002D00B9D280005D18020800021004031CC
:103AD0004860C6E04020205C012800D1C3E00120FE
:103AE0004021605400F04EFA029000901923012208
:103AF000D103200000F0D0F80028EAD16846878082
:103B0000222021004031487040202100403188703F
:103B100000202100403148600A98606265850020DD
:103B20006063524800900023F2B26846818820000A
:103B300000F0CAF9029A0C99200000F0EBF8002876
:103B40001AD16846058A012E09D0280A21688862A0
:103B5000029A0C99200000F0DDF800280CD1EDB29B
:103B600020688562029800900C9B00224021200072
:103B700000F092F8002803D000204021605470E04B
:103B80003D48618DFF290FD9FF21218500908023B9
:103B90005B04FF2268468188200000F095F96846A2
:103BA00087880C9E029D06E0628D2285009080230E
:103BB0009B04D2B2EEE700953300002204212000DE
:103BC00000F06AF800284CD12068406A616A0870E9
:103BD000606A401C60622649208D40182085628DF5
:103BE00051186185618D002920D000041ED10095F7
:103BF000330000228021200000F04EF8002830D150
:103C0000608DFF2807D9FF202085002000908023A9
:103C10005B04FF2206E0628D228500200090802355
:103C20009B04D2B23900200000F04EF9608D0028CC
:103C3000C1D131002A00200000F09CF801000ED113
:103C400020202268D061226853680A4D1D405560CB
:103C50002200403250700020002393701070080042
:103C600002D0012000E0022005B0F0BD002000805D
:103C7000FFFF000000E800FE00240080006881696A
:103C8000890701D500218162012182690A4002D1A0
:103C90008269114381617047F8B5009200240500E4
:103CA0000F001E00286880693840B84201D1012009
:103CB00000E00020009988422AD1069A31002800AD
:103CC00000F082F8002812D10020C0438642E9D0DB
:103CD00000F058F90699401A864201D3002EE1D12E
:103CE000286880693840B84203D1012002E00120F1
:103CF000F2BD002000998842D4D128004030202114
:103D000042680A4342604170002181700470EEE70E
:103D10000020F2BDF8B5022604000D00170020684F
:103D20008069304024D13A002900200000F04CF88E
:103D3000002804D10020C0438542F0D001E00120DA
:103D4000F2BD00F01FF9C01B854201D3002DE6D162
:103D5000206880693040E2D1200040302021426854
:103D60000A43426041700021002282700170E6E740
:103D70000020F2BDF8B5202504000E0017002068D1
:103D8000806928401ED13A003100200000F01CF864
:103D9000002801D00120F2BD00F0F4F8C01B8642DB
:103DA00001D3002EEBD1206880692840E7D12000A4
:103DB00040304168294341604570002100228270F3
:103DC0000170E7E70020F2BDFEB506000024306870
:103DD0008369002517001022134042D0C261009170
:103DE00033E0210035D100980021C94388422CD00E
:103DF00000F0C8F8C01B0099814201D3002924D1EA
:103E00003068416832004032927883691B040BD5D8
:103E10008023DB01194007D1202A05D041680B43DC
:103E2000436000F0AFF80700019620260198006873
:103E30008069304008D100F0A5F8C01B1A28F5D3DE
:103E40002800202505430124019E306881698906E8
:103E5000C7D5002C01D12021C161280004250543CC
:103E600001243268906901210B02184202D00D43EF
:103E7000D36101248A02104205D02B0008251D437E
:103E80003368DA6101244A02104006D02800022576
:103E900005433068C261012401E0200012D03000E7
:103EA000FFF7ECFE30684168114A0A404260310079
:103EB0004031486805434D602020487000200022B2
:103EC0008A7008702000FEBDF0B5059C006845684A
:103ED000660D084F3743BD438905890D12040A4317
:103EE00013431C436100490829434160F0BD0000B1
:103EF00000E800FEFF63FF0370B502004032537814
:103F0000202B14D14023C35C012B10D0012313704C
:103F100024245470046825689D432560046825683E
:103F2000164E2E4026600468256829431CE00220B6
:103F300070BD70B5020040325378202B12D140235F
:103F4000C35C012B0ED00123137024245470046829
:103F500025689D43256004682568094E2E400902A6
:103F6000314301E0022070BD2160006801680B430D
:103F70000360202050700020107070BDFFEFFFFF25
:103F8000FFF0FFFF01484068704700BF00000020BD
:103F900030B405004D400122D20715404B180418DB
:103FA000240E2ED01B0E32D0FF2C34D0FF2B3AD053
:103FB000E4180002090210431143000A090A94465A
:103FC000C2B24A43000AC3B24B43000A4843110A33
:103FD0005B181A43D2B2190A091801D44918641E91
:103FE000080A7F3C23DBFE2C08DAE40509061143AE
:103FF000634699416041284330BC7047FF20C005AB
:10400000F9E728001B0EFF2BF6D1D043F4E7280078
:10401000FF2CF1D1F9E74002F7D1FF2B01D1490282
:10402000F3D1E005E7E7D8054902E4D0EDE7430224
:104030000020641CDFD15B129B1CDCD9D805DAE7B9
:1040400030B405004D400122D20715404B1804182A
:10405000240E25D01B0E2CD0FF2C31D0FF2B34D0BA
:10406000E41A000209021043114343084808D10D25
:104070001B1A02D2641EDB181B18DB18834200D304
:104080001B1A4941F9D37F3423DDFF2C05DAE405FF
:1040900048086041284330BC7047FF20C005F9E75D
:1040A00028001B0E03D0FF2BF5D14902F3D0D043DB
:1040B000F1E7FF2C01D14002F9D1FF20C005E9E76B
:1040C0004002F4D1FF2BF8D1F1E728004902E2D0F9
:1040D000EDE70B0200202442DCD15B129B1CD9D9F6
:1040E000D805D7E7FEE7FEE77047704780B500F0D8
:1040F00043F801BD80B51548FDF778FC012014494F
:10410000087001BD00B599B01248FDF76FFC0E2193
:104110006C2000F039F81049088000F04BF80F4986
:10412000FFF78EFF0E49FFF733FF00F053F8020050
:104130000B0000BF0DA1684600F066F8094B82B283
:1041400069460948FFF778F819B000BD440100201E
:10415000E201002090010020E001002000F07F45F6
:104160000000B443FF0F0000100000205049443A03
:10417000252E31660A00000002484168027889183D
:104180004160704700000020F8B5642002900220D2
:10419000019003A8009001230E226C210448FFF730
:1041A00083FC03A9087800024978084305B000BDE4
:1041B000A40000209D2102000AD002D4491E9218BA
:1041C000FCD5C905100A1206524100D3012A484104
:1041D00070470000012212060118CA420AD28A4220
:1041E0000DD83822120609098918C20FD2071143C7
:1041F0004007704700D049080909014301E0C10F99
:10420000C90700207047FEE70CB418B583B004005E
:104210000A0006A8029001940020009002AB01A9B8
:10422000084878441E30FBF74BFF0021019A1170BB
:10423000002801D40198001B04B0019910BC03B000
:10424000084700BF8BCDFFFF686A6C747A4C000092
:104250007072696E74665F733A20256E20646973AC
:10426000616C6C6F776564007072696E74663A2079
:1042700062616420256E20617267756D656E7400E1
:104280007072696E74665F733A2062616420257390
:1042900020617267756D656E74000000000000009B
:1042A0006E616E004E414E00696E6600494E4600DA
:1042B0003000FEE7000000000000000000000000E9
:1042C00000000000000000000000000000000000EE
:1042D00000000000010000000200000003000000D8
:1042E00004000000060000000700000008000000B5
:1042F0000900000070B40123002413E00168001DD0
:10430000194202D04D466918491E0C60091D121F42
:10431000042AFAD20D00960701D50C80AD1C1A4074
:1043200000D02C700268001D002AE7D170BC7047D5
:1043300030B401220EE00368C31844680830144208
:1043400002D04D462C19641E1D6825601B1D241DBE
:10435000091FF9D10168001D0029ECD130BC70475C
:1043600010B5074979441831064C7C44163404E0F2
:10437000081D0A68891888470100A142F8D110BDBC
:1043800008000000280000006DFFFFFFD4010000BE
:10439000100000200000000099FFFFFF1000000047
:1043A000900000000000002000000000000000005D
:1043B00000000000000000000000000001000000FC
:1043C00002000000030000000400000000F00DF8EF
:1043D000002801D0FFF7C4FF00BF00BF002000BFCE
:1043E00000BFFEF729F800F002F80120704780B501
:1043F00000F002F801BDFEE707463846FDF786F9F2
:10440000FBE7FEE70548014603B4684680F30988E8
:1044100000BF00BF00BF00BFFFF7D8FFA5EDF5FE4E
:1044200001488047014800475544000805440008FA
:104430000100000000000000040000000024F4005F
:10444000FEE7FEE7FEE7FEE7FEE7FEE7FEE7FEE744
:06445000FEE7FEE77047E5
:0400000508004405A6
:00000001FF
